:100000000C945C000C9479000C9479000C947900A9
:100010000C9479000C9479000C9479000C9479007C
:100020000C9479000C9479000C9479000C9479006C
:100030000C9479000C9479000C9479000C9479005C
:100040000C940B010C9479000C9479000C947900B9
:100050000C9479000C9479000C9479000C9479003C
:100060000C9479000C947900000000080002010053
:100070000003040700000000000000000000000072
:10008000250028002B0000000000240027002A0083
:10009000040404040404040402020202020203032E
:1000A0000303030301020408102040800102040836
:1000B000102001020408102011241FBECFEFD8E049
:1000C000DEBFCDBF11E0A0E0B1E0EEE0F4E002C0A1
:1000D00005900D92AA30B107D9F721E0AAE0B1E06E
:1000E00001C01D92A331B207E1F70E9455010C94A3
:1000F00005020C94000090E0FC01EC55FF4F2491A8
:10010000FC01E057FF4F8491882399F090E0880F1D
:10011000991FFC01EA57FF4FA591B491FC01E458E7
:10012000FF4F859194918FB7F894EC91E22BEC936B
:100130008FBF089590E0FC01E859FF4F3491FC0116
:10014000EC55FF4F2491FC01E057FF4FE491EE2363
:1001500009F43BC0332339F1333091F038F43130B6
:10016000A9F0323001F584B58F7D12C0373091F09F
:100170003830A1F03430B9F4809180008F7D03C015
:10018000809180008F77809380000DC084B58F7739
:1001900084BD09C08091B0008F7703C08091B0000A
:1001A0008F7D8093B000F0E0EE0FFF1FE458FF4F0B
:1001B000A591B4918FB7F894EC91611103C020958B
:1001C0002E2301C02E2B2C938FBF08953FB7F89498
:1001D00080910F0190911001A0911101B091120135
:1001E00026B5A89B05C02F3F19F00196A11DB11D92
:1001F0003FBFBA2FA92F982F8827820F911DA11DCD
:10020000B11DBC01CD0142E0660F771F881F991F09
:100210004A95D1F708951F920F920FB60F921124AD
:100220002F933F938F939F93AF93BF9380910B0135
:1002300090910C01A0910D01B0910E0130910A0135
:1002400023E0230F2D3720F40196A11DB11D05C019
:1002500026E8230F0296A11DB11D20930A01809369
:100260000B0190930C01A0930D01B0930E018091AE
:100270000F0190911001A0911101B091120101960E
:10028000A11DB11D80930F0190931001A093110146
:10029000B0931201BF91AF919F918F913F912F9198
:1002A0000F900FBE0F901F901895789484B58260C0
:1002B00084BD84B5816084BD85B5826085BD85B50A
:1002C000816085BD80916E00816080936E00109288
:1002D0008100809181008260809381008091810003
:1002E0008160809381008091800081608093800094
:1002F0008091B10084608093B1008091B0008160F2
:100300008093B00080917A00846080937A0080911D
:100310007A00826080937A0080917A008160809375
:100320007A0080917A00806880937A001092C100F0
:1003300083E00E947B0084E00E947B0085E00E94B5
:100340007B0082E00E947B0061E082E00E949A00D4
:1003500090E0A92E90E0B92E00E011E060E083E08B
:100360000E949A00F801E1908F01C7E0D0E0F12CE3
:10037000B7010C2E02C0759567950A94E2F761707B
:10038000772785E00E949A0061E084E00E949A004D
:1003900060E084E00E949A00219750F761E083E0DA
:1003A0000E949A000E94E6002B013C0184EFC82EB7
:1003B000DD24D394E12CF12C0E94E600DC01CB017A
:1003C00084199509A609B709883E9340A105B1058E
:1003D00058F081E0C81AD108E108F108E8EE4E0EA5
:1003E000E3E05E1E611C711CC114D104E104F10440
:1003F00019F721E00A30120709F0B0CFA114B104B7
:0E04000009F4AACF0E940000A7CFF894FFCF06
:0A040E003F065B4F666D7D077F6FB0
:00000001FF
