:100000000C9462000C948A000C948A000C948A0070
:100010000C948A000C948A000C948A000C948A0038
:100020000C948A000C948A000C948A000C948A0028
:100030000C948A000C948A000C948A000C948A0018
:100040000C9413020C948A000C9483020C945D02AD
:100050000C948A000C948A000C948A000C948A00F8
:100060000C948A000C948A000000000025002800EF
:100070002B0000000000240027002A0000000000E0
:1000800023002600290004040404040404040202DA
:100090000202020203030303030301020408102007
:1000A0004080010204081020010204081020000012
:1000B0000008000201000003040700000000000027
:1000C0000000BE0311241FBECFEFD8E0DEBFCDBFBE
:1000D00011E0A0E0B1E0E0EFF7E002C005900D9282
:1000E000A433B107D9F721E0A4E3B1E001C01D9228
:1000F000AE3DB207E1F710E0C2E6D0E004C02197C0
:10010000FE010E94EB03C136D107C9F70E94B50278
:100110000C94F6030C940000CF92DF92EF92FF92C2
:100120000F931F93CF93DF936C017A018B01C0E093
:10013000D0E0CE15DF0589F0D8016D918D01D60193
:10014000ED91FC910190F081E02DC6010995892B7C
:1001500011F47E0102C02196ECCFC701DF91CF914F
:100160001F910F91FF90EF90DF90CF900895089529
:1001700080E090E00895FC01538D448D252F30E000
:10018000842F90E0821B930B541710F0CF960895A4
:1001900001970895FC01918D828D981761F0828DF1
:1001A000DF01A80FB11D5D968C91928D9F5F9F73AB
:1001B000928F90E008958FEF9FEF0895FC01918D4D
:1001C000828D981731F0828DE80FF11D858D90E0BA
:1001D00008958FEF9FEF0895FC01918D228D892F57
:1001E00090E0805C9F4F821B91098F73992708953F
:1001F00081E491E00E94EC0021E0892B09F420E0E9
:10020000822F0895FC01848DDF01A80FB11DA35A30
:10021000BF4F2C91848D90E001968F739927848F26
:10022000A689B7892C93A089B1898C9180648C931D
:10023000938D848D981306C00288F389E02D808108
:100240008F7D80830895EF92FF920F931F93CF933A
:10025000DF93EC0181E0888F9B8D8C8D981305C016
:10026000E889F989808185FD24C0F62E0B8D10E088
:100270000F5F1F4F0F731127E02E8C8DE8120CC0FB
:100280000FB607FCFACFE889F989808185FFF5CFA1
:10029000CE010E940201F1CF8B8DFE01E80FF11D0E
:1002A000E35AFF4FF0820B8FEA89FB8980818062DD
:1002B00007C0EE89FF896083E889F98980818064BD
:1002C000808381E090E0DF91CF911F910F91FF90AB
:1002D000EF900895CF93DF93EC01888D8823C9F0C8
:1002E000EA89FB89808185FD05C0A889B9898C913F
:1002F00086FD0FC00FB607FCF5CF808185FFF2CFDA
:10030000A889B9898C9185FFEDCFCE010E940201A9
:10031000E7CFDF91CF91089580E090E0892B29F01D
:100320000E94F80081110C9400000895833081F040
:1003300028F4813099F08230A1F008958730A9F037
:100340008830B9F08430D1F4809180008F7D03C073
:10035000809180008F7780938000089584B58F7797
:1003600002C084B58F7D84BD08958091B0008F77E1
:1003700003C08091B0008F7D8093B00008951F93DB
:10038000CF93DF93282F30E0F901E255FF4F84919E
:10039000F901E656FF4FD491F901EA57FF4FC49196
:1003A000CC23C9F0162F81110E949601EC2FF0E0AA
:1003B000EE0FFF1FE859FF4FA591B4918FB7F89446
:1003C000111105C09C91ED2FE095E92302C0EC913D
:1003D000ED2BEC938FBFDF91CF911F910895CF93B9
:1003E000DF93009779F0FC0101900020E9F7319745
:1003F000AF01481B590BBC0181E491E00E948C00C5
:10040000EC0102C0C0E0D0E042E050E062E171E007
:1004100081E491E00E948C008C0F9D1FDF91CF91B1
:1004200008950E94F1031F920F920FB60F921124AC
:100430002F933F938F939F93AF93BF9380913D01F1
:1004400090913E01A0913F01B091400130913C015B
:1004500023E0230F2D3720F40196A11DB11D05C007
:1004600026E8230F0296A11DB11D20933C01809325
:100470003D0190933E01A0933F01B09340018091D4
:10048000380190913901A0913A01B0913B01019658
:10049000A11DB11D8093380190933901A0933A01B9
:1004A000B0933B01BF91AF919F918F913F912F915D
:1004B0000F900FBE0F901F9018951F920F920FB6BE
:1004C0000F9211242F933F934F935F936F937F93DA
:1004D0008F939F93AF93BF93EF93FF9381E491E04A
:1004E0000E940201FF91EF91BF91AF919F918F9177
:1004F0007F916F915F914F913F912F910F900FBE20
:100500000F901F9018951F920F920FB60F92112403
:100510002F938F939F93EF93FF93E0915101F0916D
:1005200052018081E0915701F091580182FD12C083
:10053000908180915A018F5F8F7320915B018217A8
:1005400051F0E0915A01F0E0EF5BFE4F958F809300
:100550005A0101C08081FF91EF919F918F912F915E
:100560000F900FBE0F901F901895789484B58260FD
:1005700084BD84B5816084BD85B5826085BD85B547
:10058000816085BD80916E00816080936E001092C5
:100590008100809181008260809381008091810040
:1005A00081608093810080918000816080938000D1
:1005B0008091B10084608093B1008091B00081602F
:1005C0008093B00080917A00846080937A0080915B
:1005D0007A00826080937A0080917A0081608093B3
:1005E0007A0080917A00806880937A001092C1002E
:1005F000E7EAF0E02491E3E9F0E08491882399F0C0
:1006000090E0880F991FFC01EE58FF4FA591B4911F
:10061000FC01E859FF4F859194918FB7F894EC91C4
:10062000E22BEC938FBFCCE9D0E0FE01249108E8E7
:1006300010E0F80184918823C9F090E0880F991F99
:10064000FC01EE58FF4FA591B49188599F4FFC01D2
:10065000459154913FB7F8949C91822F80959823AF
:100660009C93FA019081892380833FBFE0915101DF
:10067000F091520182E08083E0914D01F0914E01B2
:100680001082E0914F01F09150018FEC8083109225
:100690005901E0915501F091560186E08083E09187
:1006A0005301F0915401808180618083E091530176
:1006B000F0915401808188608083E0915301F09132
:1006C0005401808180688083E0915301F09154014E
:1006D00080818F7D808330EBE32E30E0F32EF701B5
:1006E0008491FE01C490F801D490DD20A9F081111D
:1006F0000E9496018D2D90E0880F991F84589F4F7E
:10070000FC01A591B4918C91C82291E080E009F49C
:1007100090E0C92ED82E02C0C12CD12CD092370126
:10072000C0923601F1E0CF16D10499F461E08DE07A
:100730000E94BF018091340190913501892BD9F439
:1007400085E191E00E94EF01D0923501C092340121
:1007500012C060E08DE00E94BF0180913401909151
:100760003501019741F486E291E00E94EF01109279
:100770003501109234010E948C01B1CFE1E4F1E027
:100780001382128288EE93E0A0E0B0E08483958328
:10079000A683B78384E091E09183808385EC90E029
:1007A0009587848784EC90E09787868780EC90E03B
:1007B000918B808B81EC90E0938B828B82EC90E02C
:1007C000958B848B86EC90E0978B868B118E128EA6
:1007D000138E148E0895EE0FFF1F0590F491E02DF7
:1007E000099481E090E0F8940C94F603F894FFCF1C
:1007F0000000000023018C00BB006A01EC00CA006D
:10080000DE000D0A004D6F74696F6E2064657465BB
:100810006374656421004D6F74696F6E20656E644A
:0408200065642100EA
:00000001FF
