:100000000C9499000C94C1000C94C1000C94C10094
:100010000C94C1000C94C1000C94C1000C94C1005C
:100020000C94C1000C94C1000C94C1000C94C1004C
:100030000C94C1000C94C1000C94C1000C94C1003C
:100040000C94E4070C94C1000C94B2070C948C0738
:100050000C94C1000C94C1000C94C1000C94C1001C
:100060000C942E080C94C10007634236B79BD8A7A6
:100070001A39685618AEBAAB558C1D3CB7CC5763CD
:10008000BD6DEDFD753EF6177231BF000000803F7B
:1000900008000000BE922449123EABAAAA2ABECD97
:1000A000CCCC4C3E00000080BEABAAAAAA3E000009
:1000B0000000BF000000803F000000000008417801
:1000C000D3BB4387D1133D190E3CC3BD4282AD2B38
:1000D0003E68EC8276BED98FE1A93E4C80EFFFBE30
:1000E00001C4FF7F3F000000000000000000250069
:1000F00028002B0004040404040404040202020285
:1001000002020303030303030102040810204080DA
:100110000102040810200102040810200000000859
:1001200000020100000304070000000000000000BE
:100130005C0911241FBECFEFD8E0DEBFCDBF11E0B8
:10014000A0E0B1E0E8E6FFE102C005900D92A43D19
:10015000B107D9F723E0A4EDB1E001C01D92A135AC
:10016000B207E1F710E0C9E9D0E004C02197FE0131
:100170000E94980FC839D107C9F70E9495090C94BD
:10018000B20F0C9400002091900290918F022132C6
:1001900008F04AC080916C028111FCCF32E03093AC
:1001A0006C0231E030936B023FEF30936A021092A1
:1001B000690220936802AFE6B2E048E452E0FA0137
:1001C0003E2F341B321718F43D913193F9CF109222
:1001D000470220914702990F922B909347029091EA
:1001E0004602913061F4109246029091470290933A
:1001F000BB009091BC0093FDF8CF95EC01C095EE4B
:100200009093BC0090916C029230E1F390916A025D
:100210009F3F79F080916A02803241F080916A02BA
:10022000803331F084E005C081E003C082E001C08A
:1002300083E010926E021092900210926D02089567
:1002400090E0FC01E45EFE4F2491FC01E85FFE4F6C
:100250003491FC01EC50FF4FE491EE23B1F12223E5
:1002600039F1233091F038F42130A9F0223001F532
:1002700084B58F7D12C0273091F02830A1F0243052
:10028000B9F4809180008F7D03C0809180008F77CA
:10029000809380000DC084B58F7784BD09C08091A4
:1002A000B0008F7703C08091B0008F7D8093B00045
:1002B000F0E0EE0FFF1FE651FF4FA591B4918FB70D
:1002C000F894EC913E2B3C938FBF0895E0919102FE
:1002D000F09192020190F081E02D682F81E992E087
:1002E0000994CF92DF92EF92FF920F931F93CF93D7
:1002F000DF936C017A018B01C0E0D0E0CE15DF0501
:1003000089F0D8016D918D01D601ED91FC9101909C
:10031000F081E02DC6010995892B11F47E0102C000
:100320002196ECCFC701DF91CF911F910F91FF90E4
:10033000EF90DF90CF900895FC01538D448D252FD1
:1003400030E0842F90E0821B930B541710F0CF966F
:10035000089501970895FC01918D828D981761F0A1
:10036000828DDF01A80FB11D5D968C91928D9F5FEC
:100370009F73928F90E008958FEF9FEF0895FC0197
:10038000918D828D981731F0828DE80FF11D858D4A
:1003900090E008958FEF9FEF0895FC01918D228DDD
:1003A000892F90E0805C9F4F821B91098F73992762
:1003B000089581E992E00E94CD0121E0892B09F4A2
:1003C00020E0822F0895FC01848DDF01A80FB11D6C
:1003D000A35ABF4F2C91848D90E001968F7399277B
:1003E000848FA689B7892C93A089B1898C91806468
:1003F0008C93938D848D981306C00288F389E02D29
:1004000080818F7D80830895EF92FF920F931F93D9
:10041000CF93DF93EC0181E0888F9B8D8C8D9813B7
:1004200005C0E889F989808185FD24C0F62E0B8DF1
:1004300010E00F5F1F4F0F731127E02E8C8DE81215
:100440000CC00FB607FCFACFE889F989808185FFD7
:10045000F5CFCE010E94E301F1CF8B8DFE01E80FB5
:10046000F11DE35AFF4FF0820B8FEA89FB898081EF
:10047000806207C0EE89FF896083E889F9898081FD
:100480008064808381E090E0DF91CF911F910F9194
:10049000FF90EF900895CF93DF93EC01888D882330
:1004A000C9F0EA89FB89808185FD05C0A889B989E1
:1004B0008C9186FD0FC00FB607FCF5CF808185FFBC
:1004C000F2CFA889B9898C9185FFEDCFCE010E942A
:1004D000E301E7CFDF91CF91089580E090E0892B91
:1004E00029F00E94D90181110C94000008953FB7B2
:1004F000F8948091200290912102A0912202B09163
:10050000230226B5A89B05C02F3F19F00196A11D17
:10051000B11D3FBFBA2FA92F982F8827820F911D99
:10052000A11DB11DBC01CD0142E0660F771F881FE0
:10053000991F4A95D1F708958F929F92AF92BF92DB
:10054000CF92DF92EF92FF926B017C010E947702C3
:100550004B015C01C114D104E104F104F1F00E94EB
:100560007702DC01CB0188199909AA09BB09883EE9
:100570009340A105B10570F321E0C21AD108E1084A
:10058000F10888EE880E83E0981EA11CB11CC114EE
:10059000D104E104F10419F7DDCFFF90EF90DF9073
:1005A000CF90BF90AF909F908F90089585ED8093EE
:1005B000BC008091BC0084FDFCCF10926C020895B9
:1005C0004091F601262F30E0240F311D21323105F4
:1005D000DCF420916C022430C9F4FC0180E090E04E
:1005E000861758F43091F6012191DC01AC52BE4FD0
:1005F000A30FB11D2C930196F3CF8091F601680FE4
:100600006093F60180E0089581E0089582E0089506
:100610000895E091250280912402E81730F4F0E07B
:10062000EA5DFD4F808190E008958FEF9FEF089580
:100630009091250280912402981750F4E92FF0E060
:10064000EA5DFD4F208130E09F5F9093250202C05C
:100650002FEF3FEFC90108958091240290E020918F
:100660002502821B91090895CF92DF92EF92FF92AB
:100670000F931F93CF93DF937C01262F972F8A012F
:1006800080916D02882391F0C62FD72F6E01C40E82
:10069000D51ECC15DD0571F06991D701ED91FC9166
:1006A0000190F081E02DC7010995F3CF642F822FCF
:1006B0000E94E002C801DF91CF911F910F91FF903E
:1006C000EF90DF90CF900895CF93DF931F92CDB737
:1006D000DEB7698320916D022223D1F02091900230
:1006E000203240F021E030E0FC013383228380E0BF
:1006F00090E015C080916E02E82FF0E0E159FD4FC7
:10070000998190838F5F80936E028093900205C0E1
:1007100061E0CE0101960E94E00281E090E00F903E
:10072000DF91CF910895CF93C82F81E080936D0220
:1007300087E780938F0210926E021092900264EF0E
:100740008EE293E00E9464036C2F8EE293E00E949D
:100750006403CF910C94C300089580E090E0089565
:10076000009769F0FC0101900020E9F73197AF0193
:10077000481B590BBC0181E992E00C94710180E0A7
:1007800090E00895CF93DF930E94B003EC0184E2E0
:1007900091E00E94B0038C0F9D1FDF91CF910895CF
:1007A0008F929F92AF92BF920F931F93CF93DF933D
:1007B000CDB7DEB7A1970FB6F894DEBF0FBECDBFA1
:1007C00019A2423008F44AE08E010F5D1F4F842EBB
:1007D000912CA12CB12CA50194010E94440FE62F6D
:1007E000B901CA0101501109EA3014F4E05D01C0F9
:1007F000E95CD801EC93232B242B252B61F7C8014E
:100800000E94B003A1960FB6F894DEBF0FBECDBF15
:10081000DF91CF911F910F91BF90AF909F908F90DC
:10082000089590916C029111FCCF813208F080E222
:1008300091E090936C0290936B022FEF20936A02E9
:1008400010926902280F20936802909347029091BA
:1008500047029E6E9093470290914602913061F458
:1008600010924602909147029093BB009091BC0079
:1008700093FDF8CF95EC01C095EE9093BC0090915C
:100880006C029130E1F390916902981710F4809115
:100890006902A8E4B2E026E232E0F9019E2F921B41
:1008A000981718F49D919193F9CF10922502809397
:1008B00024020895CF93DF93C1E0C0936D0297E7C0
:1008C00090938F0210926E0210929002682F8EE227
:1008D00093E00E9464030E94C300C0936D021092D3
:1008E0006E021092900282E090E00E9411048EE26B
:1008F00093E00E941803D82F80E0C82F8EE293E087
:100900000E941803C82BD92B0E94C300CE01DF918F
:10091000CF9108958EE20E94930365E070E080E03D
:1009200090E00E949C0286EF0C945A04CF93C1E0A1
:10093000C0936D0297E790938F0210926E0210920F
:100940009002682F8EE293E00E9464030E94C3002D
:10095000C0936D0210926E021092900281E090E0BE
:100960000E9411048EE293E00E941803C82F0E9497
:10097000C3008C2FCF9108953F924F925F926F9258
:100980007F928F929F92AF92BF92CF92DF92EF921F
:10099000FF920F931F93CF93DF93CDB7DEB72897C6
:1009A0000FB6F894DEBF0FBECDBF0E948A046C0163
:1009B000E12CF12C80913A038295880F880F807C7E
:1009C0008C5C0E94930380913A03811105C065E01D
:1009D00070E080E090E012C0813029F468E070E0BF
:1009E00080E090E00BC0823029F46EE070E080E09F
:1009F00090E004C06AE170E080E090E00E949C0218
:100A000086EF0E945A044C01A12CB12CBA2CA92CBF
:100A1000982C882488EF0E949604882A30903A0304
:100A200080914F0390915003A7019601281B390B29
:100A300041095109A0914D03B0914E030E94850FC9
:100A40006B017C01AFE0F594E794D794C794AA9525
:100A5000D1F76091470370914803CB01770FAA0B40
:100A6000BB0BBC01CD01BBE0660F771F881F991F30
:100A7000BA95D1F72091490330914A038901330F88
:100A8000220B330BA90198012C0D3D1D4E1D5F1D3E
:100A90000E94660FC20ED31EE41EF51E20EAC21A83
:100AA0002FE0D20AE108F108A7019601C701B601BB
:100AB0000E94340F9B01AC011CE05595479537957A
:100AC00027951A95D1F729833A834B835C8300914C
:100AD0003B0310913C03A0913F03B0914003A70159
:100AE00096010E94900F2B013C018DE07594679454
:100AF000579447948A95D1F7A0914103B09142034E
:100B000029813A814B815C810E94900FBB2797FD20
:100B1000B095AB2F840D951DA61DB71D0296A11D86
:100B2000B11D32E0B595A795979587953A95D1F780
:100B30009C01AD0130584F4F5F4FA0914B03B091D6
:100B40004C030E94850F2B013C014FE07694679483
:100B5000579447944A95D1F788E090E0831991091A
:100B6000A501940104C056954795379527958A9518
:100B7000D2F72D833E834F8358874801110FAA086F
:100B8000BB0852E0880C991CAA1CBB1C5A95D1F7D3
:100B9000A0914303B091440329813A814B815C8148
:100BA0000E94900F9B01AC016BE0559547953795DE
:100BB00027956A95D1F729833A834B835C83A0916B
:100BC0003D03B0913E03A70196010E94900FDC0106
:100BD000CB017BE0B595A795979587957A95D1F749
:100BE00029813A814B815C81820F931FA41FB51F1D
:100BF000880D991DAA1DBB1D032C04C0880F991FC9
:100C0000AA1FBB1F0A94D2F7BC01CD016E5F7F4FB4
:100C10008F4F9F4F24E030E040E050E00E94660F8D
:100C20008D819E81AF81B885821B930BA40BB50B80
:100C30009C01AD0180E593ECA0E0B0E0BC01CD01EA
:100C400004C096958795779567953A94D2F70E9458
:100C5000340F97FD0BC0660F771F881F991FA301E4
:100C600092010E94440F69017A010AC0A301920116
:100C70000E94440F69017A01CC0CDD1CEE1CFF1CA4
:100C80009927F7FC9A958F2D7E2D6D2D9B01AC0138
:100C90000E94340F9B01AC01AEEDBBE00E94850FBA
:100CA0004C01BB2497FCB094AB2CA3E4B3EEA7019A
:100CB00096010E94930FBB2797FDB095AB2F880D2F
:100CC000991DAA1DBB1D8153914FAF4FBF4F44E0EB
:100CD000B595A795979587954A95D1F7BC01CD0114
:100CE0006C0D7D1D8E1D9F1D28960FB6F894DEBFDE
:100CF0000FBECDBFDF91CF911F910F91FF90EF906D
:100D0000DF90CF90BF90AF909F908F907F906F902B
:100D10005F904F903F9008954F925F926F927F92B5
:100D20008F929F92AF92BF92CF92DF92EF92FF92FB
:100D30006B017C01B42E9B01AC010E94FA0D88234B
:100D400019F087E291E027C026013701E89477F88F
:100D50002FEF3FEF4FE75FE7C301B2010E94FA0DAB
:100D600081110DC02FEF3FEF4FE75FE7C301B201E5
:100D70000E94D90B18161CF48BE291E00CC02FEFE7
:100D80003FEF4FE75FE4C701B6010E94380D181628
:100D900084F48FE291E0FF90EF90DF90CF90BF90CE
:100DA000AF909F908F907F906F905F904F900C943A
:100DB000B0032FEF3FEF4FE75FECC701B6010E9492
:100DC000D90B87FDE6CF20E030E0A901C701B601CD
:100DD0000E94D90B87FF09C08DE20E9466014C0179
:100DE000F7FAF094F7F8F09402C0812C912CA12C22
:100DF00060E070E080E09FE3AB1441F020E030E081
:100E000040E251E40E94DE0BA394F6CF9B01AC01BB
:100E1000C701B6010E946D0B2B013C010E94570CCB
:100E20006B017C010E94860C9B01AC01C301B201E5
:100E30000E946C0B2B013C014AE0C701B6010E94E5
:100E4000D0037C01E80CF91CBB2029F08EE20E9443
:100E50006601E80EF91EDB2CDD2021F120E030E0F8
:100E600040E251E4C301B2010E943D0D2B013C015F
:100E70000E94570C4B01A12CB12C4AE0C501B401D2
:100E80000E94D003E80EF91EC501B4010E94860C31
:100E90009B01AC01C301B2010E946C0B2B013C0110
:100EA000DA94DACFC701FF90EF90DF90CF90BF9038
:100EB000AF909F908F907F906F905F904F9008952C
:100EC000CF92DF92EF92FF92CF93DF9397FF19C0FB
:100ED0006B017C018DE20E946601EC016627772799
:100EE000CB016C197D098E099F094AE00E94D0034D
:100EF0008C0F9D1FDF91CF91FF90EF90DF90CF90EF
:100F000008954AE0DF91CF91FF90EF90DF90CF906E
:100F10000C94D0030E94AD0F1F920F920FB60F9248
:100F200011242F933F934F935F936F937F938F93EE
:100F30009F93AF93BF93EF93FF9381E992E00E9459
:100F4000E301FF91EF91BF91AF919F918F917F91BD
:100F50006F915F914F913F912F910F900FBE0F9026
:100F60001F9018951F920F920FB60F9211242F9376
:100F70008F939F93EF93FF93E091A102F091A202D0
:100F80008081E091A702F091A80282FD12C09081B9
:100F90008091AA028F5F8F732091AB02821751F06C
:100FA000E091AA02F0E0EF56FD4F958F8093AA02E0
:100FB00001C08081FF91EF919F918F912F910F90B0
:100FC0000FBE0F901F9018951F920F920FB60F92A1
:100FD00011242F933F938F939F93AF93BF9380914F
:100FE0001C0290911D02A0911E02B0911F0230912F
:100FF0001B0223E0230F2D3720F40196A11DB11D04
:1010000005C026E8230F0296A11DB11D20931B02E7
:1010100080931C0290931D02A0931E02B0931F02A6
:101020008091200290912102A0912202B09123028E
:101030000196A11DB11D8093200290932102A093DF
:101040002202B0932302BF91AF919F918F913F9164
:101050002F910F900FBE0F901F9018951F920F9217
:101060000FB60F9211242F933F934F935F936F937B
:101070007F938F939F93AF93BF93EF93FF93809151
:10108000B900887F803609F49CC068F5883209F47D
:101090005BC090F4803109F454C038F4882309F41B
:1010A000F6C0883009F44DC0F6C0883109F44CC050
:1010B000803209F45DC0EFC0803409F468C048F4A0
:1010C000803309F455C0883309F0E5C080936A0283
:1010D000D8C0803509F44FC0883509F45DC0883424
:1010E00009F0D9C0D6C0883909F4C7C0A8F4883738
:1010F00009F467C038F4883609F463C0803709F40E
:1011000060C0C9C0883809F4B8C0803909F45FC02C
:10111000803809F0C0C05BC0803B09F486C038F459
:10112000803A09F466C0883A09F47FC0B4C0803CB4
:1011300009F4A7C0883C09F4A4C0883B09F48AC01C
:10114000AAC08091470210C0909169028091680204
:10115000981770F5E091690281E08E0F8093690223
:10116000F0E0E85BFD4F80818093BB0085EC86C09A
:1011700080936A028EC0E091690281E08E0F8093B5
:1011800069028091BB00F0E0E85BFD4F80839091A5
:101190006902809168026EC0E091690281E08E0F61
:1011A000809369028091BB00F0E0E85BFD4F808393
:1011B00080916B0281116DC081E08093460284EAC8
:1011C00061C083E080936C0210921A02CFCF8091AD
:1011D0001A02803208F051C0E0911A0281E08E0FAD
:1011E00080931A028091BB00F0E0E650FE4F8083AE
:1011F000BDCF85EC8093BC0010926C0280911A02E6
:10120000803230F4E0911A02F0E0E650FE4F108296
:1012100060911A0270E0E091F801F091F9018AEF13
:1012200091E0099510921A0236C084E080936C0216
:101230001092F7011092F601E091F401F091F5019E
:1012400009958091F601811105C081E08093F60136
:101250001092D401E091F70181E08E0F8093F701A5
:10126000F0E0EC52FE4F80818093BB009091F7013B
:101270008091F601981708F479CF85E88093BC0037
:101280000AC085EC8093BC0010926C0204C01092DE
:101290006A020E94D602FF91EF91BF91AF919F9198
:1012A0008F917F916F915F914F913F912F910F900F
:1012B0000FBE0F901F901895E1E9F2E013821282A1
:1012C00088EE93E0A0E0B0E084839583A683B783A3
:1012D00024E031E03183208325EC30E0358724871A
:1012E00024EC30E03787268720EC30E0318B208BF0
:1012F00021EC30E0338B228B22EC30E0358B248BD9
:1013000026EC30E0378B268B118E128E138E148EC6
:10131000EEE2F3E01382128284839583A683B7837F
:1013200086E191E0918380830895789484B582600A
:1013300084BD84B5816084BD85B5826085BD85B579
:10134000816085BD80916E00816080936E001092F7
:101350008100809181008260809381008091810072
:101360008160809381008091800081608093800003
:101370008091B10084608093B1008091B000816061
:101380008093B00080917A00846080937A0080918D
:101390007A00826080937A0080917A0081608093E5
:1013A0007A0080917A00806880937A001092C10060
:1013B000E091A102F091A20282E08083E0919D027F
:1013C000F0919E021082E0919F02F091A0028FECBA
:1013D00080831092A902E091A502F091A60286E016
:1013E0008083E091A302F091A402808180618083D8
:1013F000E091A302F091A402808188608083E09153
:10140000A302F091A402808180688083E091A3020E
:10141000F091A40280818F7D808383E080933A03E2
:10142000109225021092240210926E0210929002E5
:1014300010926C0281E080936B021092460282E16E
:101440000E94200183E10E9420018091B9008E7FDB
:101450008093B9008091B9008D7F8093B90088E4B2
:101460008093B80085E48093BC0080ED0E949604D0
:10147000853509F02CC18AEA0E945A0490933C03F6
:1014800080933B038CEA0E945A0490933E0380931E
:101490003D038EEA0E945A049093400380933F03D9
:1014A00080EB0E945A0490934C0380934B0382EB91
:1014B0000E945A0490934E0380934D0384EB0E9444
:1014C0005A049093500380934F0386EB0E945A0472
:1014D000909342038093410388EB0E945A049093B7
:1014E0004403809343038AEB0E945A04909346037B
:1014F000809345038CEB0E945A0490934803809399
:1015000047038EEB0E945A0490934A038093490349
:1015100083E391E00E94B0030E948A04AC0160E082
:1015200070E080914F03909150039A01AB01281B0A
:10153000390B41095109A0914D03B0914E030E940E
:10154000850F6B017C018FE0F594E794D794C794E5
:101550008A95D1F76091470370914803CB01770FCB
:10156000AA0BBB0BBC01CD012BE0660F771F881FB8
:10157000991F2A95D1F72091490330914A03890197
:10158000330F220B330BA90198012C0D3D1D4E1D6D
:101590005F1D0E94660FD701C601820F931FA41F13
:1015A000B51F0896A11DB11DBC01CD0134E0959574
:1015B0008795779567953A95D1F70E94880C20E03A
:1015C00030E040E251E40E94DE0B42E00E948C06D3
:1015D00082E491E00E94C20386E491E00E94B0039D
:1015E0000E94BC040E94600782E591E00E94C20351
:1015F00086E591E00E94B0030E94BC040E94880C22
:1016000020E836EE45EC57E40E94DE0B21E03EED8B
:1016100042E45EE30E94AA0D9B01AC0160E070E031
:1016200080E89FE30E946C0B20E03AE24DE257E431
:101630000E943D0D42E00E948C0682E691E00E94ED
:10164000C2038AE691E00E94B0030E94BC040E949B
:10165000880C0E94500C0E94600782E591E00E9475
:10166000C2038FE891E00E94B0030E94BC040E9474
:10167000880C20E03EE346EC57E40E94DE0B21E0BC
:101680003EED42E45EE30E94AA0D9B01AC0160E0E6
:1016900070E080E89FE30E946C0B20E03AE24DE2AC
:1016A00057E40E943D0D42E00E948C0682E691E0E4
:1016B0000E94C20384E291E00E94B00364EF71E0F3
:1016C00080E090E00E949C020E946D0221CF80EA9F
:1016D00091E00E94C203FFCF5058BB27AA270E9467
:1016E000840B0C94FE0C0E94F00C38F00E94F70C56
:1016F00020F039F49F3F19F426F40C94ED0C0EF40D
:10170000E095E7FB0C94E70CE92F0E940F0D58F3CE
:10171000BA17620773078407950720F079F4A6F5D6
:101720000C94310D0EF4E0950B2EBA2FA02D0B0169
:10173000B90190010C01CA01A0011124FF27591B16
:1017400099F0593F50F4503E68F11A16F040A22F1C
:10175000232F342F4427585FF3CF4695379527958D
:10176000A795F0405395C9F77EF41F16BA0B620B8C
:10177000730B840BBAF09150A1F0FF0FBB1F661FD3
:10178000771F881FC2F70EC0BA0F621F731F841F16
:1017900048F4879577956795B795F7959E3F08F03C
:1017A000B0CF9395880F08F09927EE0F97958795FE
:1017B00008950E94C30C08F481E008950E94F20B82
:1017C0000C94FE0C0E94F70C58F00E94F00C40F0B4
:1017D00029F45F3F29F00C94E70C51110C94320D61
:1017E0000C94ED0C0E940F0D68F39923B1F355236F
:1017F00091F3951B550BBB27AA2762177307840724
:1018000038F09F5F5F4F220F331F441FAA1FA9F3B9
:1018100035D00E2E3AF0E0E832D091505040E695A7
:10182000001CCAF72BD0FE2F29D0660F771F881F08
:10183000BB1F261737074807AB07B0E809F0BB0BFB
:10184000802DBF01FF2793585F4F3AF09E3F51050F
:1018500078F00C94E70C0C94320D5F3FE4F3983E63
:10186000D4F3869577956795B795F7959F5FC9F7F8
:10187000880F911D9695879597F90895E1E0660F79
:10188000771F881FBB1F621773078407BA0720F0F2
:10189000621B730B840BBA0BEE1F88F7E09508955B
:1018A0000E94570C6894B1110C94320D08950E9457
:1018B000170D88F09F5798F0B92F9927B751B0F0BE
:1018C000E1F0660F771F881F991F1AF0BA95C9F7C4
:1018D00014C0B13091F00E94310DB1E008950C9424
:1018E000310D672F782F8827B85F39F0B93FCCF3D7
:1018F000869577956795B395D9F73EF49095809541
:10190000709561957F4F8F4F9F4F0895E89409C060
:1019100097FB3EF490958095709561957F4F8F4F22
:101920009F4F9923A9F0F92F96E9BB279395F69538
:10193000879577956795B795F111F8CFFAF4BB0FB6
:1019400011F460FF1BC06F5F7F4F8F4F9F4F16C01A
:10195000882311F096E911C0772321F09EE8872FA4
:10196000762F05C0662371F096E8862F70E060E060
:101970002AF09A95660F771F881FDAF7880F9695D9
:10198000879597F90895990F0008550FAA0BE0E87D
:10199000FEEF16161706E807F907C0F01216130631
:1019A000E407F50798F0621B730B840B950B39F471
:1019B0000A2661F0232B242B252B21F408950A26D7
:1019C00009F4A140A6958FEF811D811D089597F917
:1019D0009F6780E870E060E008959FEF80EC0895D5
:1019E00000240A94161617061806090608950024FE
:1019F0000A9412161306140605060895092E039478
:101A0000000C11F4882352F0BB0F40F4BF2B11F4EB
:101A100060FF04C06F5F7F4F8F4F9F4F089557FD4A
:101A20009058440F551F59F05F3F71F04795880F4C
:101A300097FB991F61F09F3F79F0879508951216E3
:101A400013061406551FF2CF4695F1DF08C016168F
:101A500017061806991FF1CF869571056105089440
:101A60000895E894BB2766277727CB0197F9089557
:101A70000E94C30C08F48FEF08950E94500D0C943F
:101A8000FE0C0E94F00C38F00E94F70C20F0952319
:101A900011F00C94E70C0C94ED0C11240C94320D05
:101AA0000E940F0D70F3959FC1F3950F50E0551FE5
:101AB000629FF001729FBB27F00DB11D639FAA27A3
:101AC000F00DB11DAA1F649F6627B00DA11D661FF2
:101AD000829F2227B00DA11D621F739FB00DA11D13
:101AE000621F839FA00D611D221F749F3327A00DCD
:101AF000611D231F849F600D211D822F762F6A2F69
:101B000011249F5750409AF0F1F088234AF0EE0FCD
:101B1000FF1FBB1F661F771F881F91505040A9F7FA
:101B20009E3F510580F00C94E70C0C94320D5F3F02
:101B3000E4F3983ED4F3869577956795B795F79536
:101B4000E7959F5FC1F7FE2B880F911D96958795AE
:101B500097F90895FA01EE0FFF1F30962105310520
:101B6000A1F16115710561F48038BFE39B0749F16C
:101B700068949038810561F08038BFEF9B0741F091
:101B800099234AF5FF3FE1053105210519F1E89454
:101B90000894E795D901AA2329F4AB2FBE2FF85F4B
:101BA000D0F310C0FF5F70F4A695E0F7F73950F05E
:101BB00019F0FF3A38F49F779F930DD00F9007FCF0
:101BC0009058089546F00C94ED0C60E070E080E8C9
:101BD0009FE308954FE79F775F934F933F932F9332
:101BE0000E94AA0E2F913F914F915F910E943D0D4F
:101BF0000C94070E0E94C30C880B990B089529F4CE
:101C000016F00C94E70C0C94310D0C94ED0C0E9422
:101C1000170DA8F39638A0F707F80F92E8942BE376
:101C20003AEA48EB5FE70E94530D0F920F920F9232
:101C30004DB75EB70F920E94F20EE8E6F0E00E9408
:101C4000390E4F915F91EF91FF91E595EE1FFF1FC8
:101C500049F0FE57E0684427EE0F441FFA95E1F77C
:101C60004195550B0E946C0E0F9007FE0C94600E70
:101C70000895DF93CF931F930F93FF92EF92DF921C
:101C80007B018C01689406C0DA2EEF010E94500D92
:101C9000FE01E894A5912591359145915591A6F3C2
:101CA000EF010E94840BFE019701A801DA9469F705
:101CB000DF90EF90FF900F911F91CF91DF910895EA
:101CC0009B01AC0160E070E080E89FE30C94DE0BC8
:101CD0000C94E70C0C94260F0E94170DD8F399234F
:101CE000C9F3940F511DA3F39150504094F059F053
:101CF000882332F0660F771F881F91505040C1F73C
:101D00009E3F51052CF7880F911D9695879597F961
:101D100008955F3FACF0983E9CF0BB278695779581
:101D20006795B79508F4B1609395C1F7BB0F58F765
:101D300011F460FFE8CF6F5F7F4F8F4F9F4FE3CF6E
:101D40000C94320D16F00C94260F0C94ED0C689444
:101D50000C94E70C0E94170DA8F39923C1F3AEF37E
:101D6000DF93CF931F930F93FF92C92FDD27882313
:101D70002AF02197660F771F881FDAF720E030E0FE
:101D800040E85FEB9FE3883920F0803E38F02196F1
:101D90008F770E946D0BE0E9F0E004C00E946D0BAC
:101DA000EDEBF0E00E94390E8B01BE01EC01FB2E41
:101DB0006F5771097595771F880B990B0E94880CD6
:101DC00028E132E741E35FE30E94500DAF2D980117
:101DD000AE01FF900F911F91CF91DF910E94840B74
:101DE0000C94FE0CFA01DC01AA0FBB1F9B01AC0195
:101DF000BF5728F4222733274427507820C0B751F3
:101E000090F4AB2F0024469537952795011CA39598
:101E1000D2F3002071F0220F331F441FB395DAF381
:101E20000ED00C946C0B61307105A0E88A07B9469E
:101E300030F49B01AC01662777278827907830968D
:101E400021F0208331834283538308959F3F31F0F3
:101E5000915020F4879577956795B795880F911DD8
:101E60009695879597F90895DB018F939F930E942C
:101E7000850FBF91AF91A29F800D911DA39F900DE3
:101E8000B29F900D11240895A1E21A2EAA1BBB1B2C
:101E9000FD010DC0AA1FBB1FEE1FFF1FA217B30736
:101EA000E407F50720F0A21BB30BE40BF50B661F4C
:101EB000771F881F991F1A9469F760957095809510
:101EC00090959B01AC01BD01CF010895052E97FBB4
:101ED0001EF400940E947D0F57FD07D00E94440F0E
:101EE00007FC03D04EF40C947D0F5095409530952F
:101EF00021953F4F4F4F5F4F089590958095709576
:101F000061957F4F8F4F9F4F08950E949E0FA59F11
:101F1000900DB49F900DA49F800D911D11240895E4
:101F2000B7FF0C94850F0E94850F821B930B0895B9
:101F3000EE0FFF1F0590F491E02D0994A29FB001D0
:101F4000B39FC001A39F700D811D1124911DB29FED
:101F5000700D811D1124911D089581E090E0F89489
:081F60000C94B20FF894FFCFBE
:101F680000000000040271019C014B02CD01AB018D
:101F7800BF010000000064033403AD0308032C0311
:101F8800180309030D0A006E616E00696E66006F22
:101F980076660054656D7065726174757265203D72
:101FA8002000202A43005072657373757265203DC6
:101FB800200020506100416C746974756465203D8F
:101FC8002000206D657465727300507265737375B7
:101FD8007265206174207365616C6576656C202874
:101FE80063616C63756C6174656429203D200052DF
:101FF80065616C20616C746974756465203D2000AE
:10200800436F756C64206E6F742066696E6420611E
:102018002076616C696420424D50303835207365F4
:102028006E736F722C20636865636B2077697269C1
:042038006E672100AE
:00000001FF
