:100000000C9458000C9480000C9480000C94800098
:100010000C9480000C9480000C9480000C94800060
:100020000C9480000C9480000C9480000C94800050
:100030000C9480000C9480000C9480000C94800040
:100040000C9410040C9480000C9480000C9480009C
:100050000C9480000C9480000C9480000C94800020
:100060000C945A040C948000000000002500280025
:100070002B00040404040404040402020202020229
:10008000030303030303010204081020408001025C
:1000900004081020010204081020000000080002DB
:1000A00001000003040700000000000000008805B4
:1000B00011241FBECFEFD8E0DEBFCDBF11E0A0E01E
:1000C000B1E0E2EDFCE002C005900D92A433B1076F
:1000D000D9F721E0A4E3B1E001C01D92A63FB20729
:1000E000E1F710E0C8E5D0E004C02197FE010E94CE
:1000F0005C06C735D107C9F70E94BF050C94670697
:100100000C9400002091D0019091CF01213208F091
:100110004AC08091AC018111FCCF32E03093AC0138
:1001200031E03093AB013FEF3093AA011092A90167
:100130002093A801AFEAB1E048E851E0FA013E2F70
:10014000341B321718F43D913193F9CF1092870187
:1001500020918701990F922B9093870190918601AE
:10016000913061F410928601909187019093BB00C9
:100170009091BC0093FDF8CF95EC01C095EE909363
:10018000BC009091AC019230E1F39091AA019F3FA5
:1001900079F08091AA01803241F08091AA018033E8
:1001A00031F084E005C081E003C082E001C083E05B
:1001B0001092AE011092D0011092AD010895CF922D
:1001C000DF92EF92FF920F931F93CF93DF936C0117
:1001D0007A018B01C0E0D0E0CE15DF0589F0D801AF
:1001E0006D918D01D601ED91FC910190F081E02D92
:1001F000C6010995892B11F47E0102C02196ECCF2E
:10020000C701DF91CF911F910F91FF90EF90DF9089
:10021000CF90089590E0FC01E656FF4F3491FC0129
:10022000EA57FF4F2491FC01EE58FF4FE491EE2373
:1002300009F43BC0332339F1333091F038F43130D5
:10024000A9F0323001F584B58F7D12C0373091F0BE
:100250003830A1F03430B9F4809180008F7D03C034
:10026000809180008F77809380000DC084B58F7758
:1002700084BD09C08091B0008F7703C08091B00029
:100280008F7D8093B000F0E0EE0FFF1FE859FF4F25
:10029000A591B4918FB7F894EC91611103C02095AA
:1002A0002E2301C02E2B2C938FBF08953FB7F894B7
:1002B0008091820190918301A0918401B091850188
:1002C00026B5A89B05C02F3F19F00196A11DB11DB1
:1002D0003FBFBA2FA92F982F8827820F911DA11DEC
:1002E000B11DBC01CD0142E0660F771F881F991F29
:1002F0004A95D1F7089521E001C0220F6A95EAF7E7
:10030000DC011C962C931C971A965C934E931997BC
:10031000ED91FC910484F585E02D60E00994DC0109
:10032000ED91FC910684F785E02D41E0099581E08F
:1003300090E00895DC01ED91FC910684F785E02DB5
:1003400040E009948F929F92AF92BF92CF92DF923A
:10035000EF92FF920F931F93CF93DF93EC01423004
:1003600018F08C8188608C834F836887222329F062
:10037000413019F48C8184608C830E9456014B01BA
:100380005C0184E6C82ED12CE12CF12C0E94560190
:10039000DC01CB0188199909AA09BB09883E934061
:1003A000A105B10558F021E0C21AD108E108F10811
:1003B00088EE880E83E0981EA11CB11CC114D104E4
:1003C000E104F10419F76C8164FD31C0E881F98121
:1003D0000684F785E02D42E063E0CE0109958BE4C9
:1003E00096E40197F1F7E881F9810684F785E02D1D
:1003F00042E063E0CE01099503E512E0C8010197F0
:10040000F1F7E881F9810684F785E02D42E063E0A9
:10041000CE010995C8010197F1F7E881F9810684B9
:10042000F785E02D42E062E0CE01099517C06062D9
:10043000CE010E949A018BE496E40197F1F76C815A
:100440006062CE010E949A0103E512E0C8010197A3
:10045000F1F76C816062CE010E949A01C801019798
:10046000F1F76C816062CE010E949A018BEE90E000
:100470000197F1F784E08D836CE0CE010E949A0130
:1004800061E0CE010E949A018BE39FE10197F1F7B1
:1004900082E08E8366E0CE010E949A01E881F981B4
:1004A0000484F585E02D6FEFCE01DF91CF911F9190
:1004B0000F91FF90EF90DF90CF90BF90AF909F9003
:1004C0008F9009940895089585ED8093BC008091E4
:1004D000BC0084FDFCCF1092AC0108954091560100
:1004E000262F30E0240F311D21323105DCF420911C
:1004F000AC012430C9F4FC0180E090E0861758F488
:10050000309156012191DC01AC5CBE4FA30FB11DAF
:100510002C930196F3CF80915601680F609356019A
:1005200080E0089581E0089582E00895089581E0D3
:1005300090E030917C0120917B01321710F480E033
:1005400090E0919581959109089580917C01909119
:100550007B01891730F48F5F80937C0180E090E00D
:1005600008958FEF9FEF089580917B0190E0209197
:100570007C01821B91090895CF92DF92EF92FF9246
:100580000F931F93CF93DF937C01262F972F8A0120
:100590008091AD01882391F0C62FD72F6E01C40E34
:1005A000D51ECC15DD0571F06991D701ED91FC9157
:1005B0000190F081E02DC7010995F3CF642F822FC0
:1005C0000E946E02C801DF91CF911F910F91FF90A1
:1005D000EF90DF90CF900895CF93DF931F92CDB728
:1005E000DEB769832091AD012223D1F02091D001A3
:1005F000203240F021E030E0FC013383228380E0B0
:1006000090E015C08091AE01E82FF0E0E155FE4F7B
:10061000998190838F5F8093AE018093D00105C054
:1006200061E0CE0101960E946E0281E090E00F90A1
:10063000DF91CF910895FC0123812223B9F09181AC
:10064000909569236083828191E09093AD018093BE
:10065000CF011092AE011092D00181ED91E00E9485
:10066000EC020E948200282F30E002C020E030E03F
:1006700081E090E0232B11F080E090E00895EF926C
:10068000FF920F931F93CF938C01FC01759684E02A
:10069000C0E060FF02C09081C92B66958150319601
:1006A0008111F7CF413011F4F8014489F8018585B3
:1006B000C82BC42B7801FEE0EF0EF11CF801628913
:1006C0006C2BC7010E941B03F801628960956C23A3
:1006D000C701CF911F910F91FF90EF900C941B03D6
:1006E0000F931F93CF93DF93062F0F70423019F4AF
:1006F00040E0602F10C0142F262FEC0130E0B9012C
:1007000084E0759567958A95E1F7CE010E943F03D5
:10071000412F602FCE01DF91CF911F910F910C944B
:100720003F03FC0184858823A9F0218532852115AA
:10073000310519F4611106C007C02130310521F4DB
:10074000611102C0858701C015866585CF010E96AF
:100750000C941B030895EF92FF920F931F93CF9376
:10076000DF93EC01062FF42EE22E8B85888B1092FE
:100770007C0110927B011092AE011092D001109278
:10078000AC0111E01093AB011092860161E082E1AF
:100790000E940A0161E083E10E940A018091B90090
:1007A0008E7F8093B9008091B9008D7F8093B900CE
:1007B00088E48093B80085E48093BC008889109316
:1007C000AD018093CF011092AE011092D0010E9432
:1007D000820091E0811190E0998B992329F081EDBD
:1007E00091E00E94A5028E878989882339F01F86AF
:1007F0001C8260E0CE010E960E941B032E2D4F2D11
:10080000602FCE01DF91CF911F910F91FF90EF905C
:100810000C94A201089580E090E008950E94620681
:100820001F920F920FB60F9211242F933F938F9325
:100830009F93AF93BF9380917E0190917F01A09190
:100840008001B091810130917D0123E0230F2D378C
:1008500020F40196A11DB11D05C026E8230F0296C4
:10086000A11DB11D20937D0180937E0190937F0196
:10087000A0938001B09381018091820190918301C6
:10088000A0918401B09185010196A11DB11D8093B5
:10089000820190938301A0938401B0938501BF915D
:1008A000AF919F918F913F912F910F900FBE0F901D
:1008B0001F9018951F920F920FB60F9211242F932D
:1008C0003F934F935F936F937F938F939F93AF93D8
:1008D000BF93EF93FF938091B900887F803609F42E
:1008E0009CC068F5883209F45BC090F4803109F44B
:1008F00054C038F4882309F4F6C0883009F44DC098
:10090000F6C0883109F44CC0803209F45DC0EFC0F4
:10091000803409F468C048F4803309F455C0883342
:1009200009F0E5C08093AA01D8C0803509F44FC012
:10093000883509F45DC0883409F0D9C0D6C088393B
:1009400009F4C7C0A8F4883709F467C038F48836BA
:1009500009F463C0803709F460C0C9C0883809F45D
:10096000B8C0803909F45FC0803809F0C0C05BC0EE
:10097000803B09F486C038F4803A09F466C0883AAE
:1009800009F47FC0B4C0803C09F4A7C0883C09F4D6
:10099000A4C0883B09F48AC0AAC08091870110C016
:1009A0009091A9018091A801981770F5E091A90193
:1009B00081E08E0F8093A901F0E0E857FE4F80811F
:1009C0008093BB0085EC86C08093AA018EC0E09125
:1009D000A90181E08E0F8093A9018091BB00F0E016
:1009E000E857FE4F80839091A9018091A8016EC0C5
:1009F000E091A90181E08E0F8093A9018091BB0055
:100A0000F0E0E857FE4F80838091AB0181116DC00B
:100A100081E08093860184EA61C083E08093AC0129
:100A200010927A01CFCF80917A01803208F051C0C4
:100A3000E0917A0181E08E0F80937A018091BB0072
:100A4000F0E0E65AFE4F8083BDCF85EC8093BC007A
:100A50001092AC0180917A01803230F4E0917A01F9
:100A6000F0E0E65AFE4F108260917A0170E0E0916A
:100A70005801F09159018AE591E0099510927A01A7
:100A800036C084E08093AC01109257011092560159
:100A9000E0915401F0915501099580915601811121
:100AA00005C081E08093560110923401E091570116
:100AB00081E08E0F80935701F0E0EC5CFE4F808167
:100AC0008093BB009091570180915601981708F4CC
:100AD00079CF85E88093BC000AC085EC8093BC0088
:100AE0001092AC0104C01092AA010E946402FF910E
:100AF000EF91BF91AF919F918F917F916F915F9196
:100B00004F913F912F910F900FBE0F901F9018950E
:100B1000E1EDF1E01382128288EE93E0A0E0B0E014
:100B200084839583A683B78384E091E09183808357
:100B3000EDEDF1E01382128286E191E091838083F2
:100B4000108A8FEF87871686118A87E2838714863B
:100B500015861286118684E0828B82E0838B81E089
:100B6000848B80E1858B80E2868B80E4878B80E8B4
:100B7000808F40E050E063E0CF010C947B01CF9385
:100B8000DF93CDB7DEB728970FB6F894DEBF0FBE60
:100B9000CDBF789484B5826084BD84B5816084BD06
:100BA00085B5826085BD85B5816085BD80916E000B
:100BB000816080936E00109281008091810082603C
:100BC0008093810080918100816080938100809179
:100BD00080008160809380008091B1008460809368
:100BE000B1008091B00081608093B00080917A0064
:100BF000846080937A0080917A00826080937A008A
:100C000080917A00816080937A0080917A00806878
:100C100080937A001092C10020E042E060E18DED07
:100C200091E00E94AB03E091DD01F091DE010484CC
:100C3000F585E02D6FEF8DED91E009951D8280E443
:100C40008E8394E19F8394E5988719828A8380E15B
:100C50008B8380E58C832091E40181E0211180E089
:100C600081953091E50190E0FE01E80FF91F3031E8
:100C700021F4243011F4618101C0658160688DED3B
:100C800091E00E949A0161E08DED91E00E949A014D
:100C90008BE39FE10197F1F74CE050E066E271E0F1
:100CA0008DED91E00E94DF0000E010E001151105DC
:100CB000E9F30E940000FACFEE0FFF1F0590F491B8
:100CC000E02D099481E090E0F8940C946706F89484
:020CD000FFCF54
:100CD20000000000EC02BC020B049602B402A50262
:100CE2009702000000008F01DF000B040A04AB032F
:100CF2007B0191037003616269206E6173696C7399
:040D0200696E000016
:00000001FF
