:100000000C9463000C948B000C948B000C948B006C
:100010000C948B000C948B000C948B000C948B0034
:100020000C948B000C948B000C948B000C948B0024
:100030000C948B000C948B000C948B000C948B0014
:100040000C94C3070C948B000C9491070C946B07D1
:100050000C948B000C948B000C948B000C948B00F4
:100060000C948B000C948B000000000023002600F1
:10007000290000000000240027002A0000000000E2
:10008000250028002B0000000008000201000003EA
:10009000040700000000000000000404040404043D
:1000A0000404020202020202030303030303010227
:1000B00004081020408001020408102001020408F6
:1000C00010200D08980A11241FBECFEFD8E0DEBF24
:1000D000CDBF12E0A0E0B1E0E0EFFBE102C005908F
:1000E0000D92AE35B107D9F723E0AEE5B2E001C01D
:1000F0001D92A133B207E1F710E0C2E6D0E004C0E0
:100100002197FE010E94A40CC136D107C9F70E94B5
:1001100086080C94EB0D0C940000E0916B02F091BA
:100120006C020190F081E02D682F8BE692E009943B
:10013000CF92DF92EF92FF920F931F93CF93DF93B3
:100140006C017A018B01C0E0D0E0CE15DF0589F0AB
:10015000D8016D918D01D601ED91FC910190F08156
:10016000E02DC6010995892B11F47E0102C021966C
:10017000ECCFC701DF91CF911F910F91FF90EF90CE
:10018000DF90CF900895089580E090E00895FC01FD
:10019000538D448D252F30E0842F90E0821B930BEC
:1001A000541710F0CF96089501970895FC01918D92
:1001B000828D981761F0828DDF01A80FB11D5D96C9
:1001C0008C91928D9F5F9F73928F90E008958FEF37
:1001D0009FEF0895FC01918D828D981731F0828DEB
:1001E000E80FF11D858D90E008958FEF9FEF089542
:1001F000FC01918D228D892F90E0805C9F4F821BA6
:1002000091098F73992708958BE692E00E94F80078
:1002100021E0892B09F420E0822F0895FC01848DD0
:10022000DF01A80FB11DA35ABF4F2C91848D90E020
:1002300001968F739927848FA689B7892C93A089FB
:10024000B1898C9180648C93938D848D981306C0B2
:100250000288F389E02D80818F7D80830895EF925D
:10026000FF920F931F93CF93DF93EC0181E0888F70
:100270009B8D8C8D981305C0E889F989808185FD57
:1002800024C0F62E0B8D10E00F5F1F4F0F73112748
:10029000E02E8C8DE8120CC00FB607FCFACFE8896F
:1002A000F989808185FFF5CFCE010E940E01F1CF43
:1002B0008B8DFE01E80FF11DE35AFF4FF0820B8F8B
:1002C000EA89FB898081806207C0EE89FF896083AB
:1002D000E889F98980818064808381E090E0DF9102
:1002E000CF911F910F91FF90EF900895CF93DF93DF
:1002F000EC01888D8823C9F0EA89FB89808185FD1E
:1003000005C0A889B9898C9186FD0FC00FB607FC7E
:10031000F5CF808185FFF2CFA889B9898C9185FFBF
:10032000EDCFCE010E940E01E7CFDF91CF9108956E
:1003300080E090E0892B29F00E94040181110C9447
:100340000000089590E0FC01EA57FF4F3491FC0152
:10035000E255FF4F2491FC01E656FF4FE491EE2356
:1003600009F43BC0332339F1333091F038F43130A4
:10037000A9F0323001F584B58F7D12C0373091F08D
:100380003830A1F03430B9F4809180008F7D03C003
:10039000809180008F77809380000DC084B58F7727
:1003A00084BD09C08091B0008F7703C08091B000F8
:1003B0008F7D8093B000F0E0EE0FFF1FE458FF4FF9
:1003C000A591B4918FB7F894EC91611103C0209579
:1003D0002E2301C02E2B2C938FBF0895CF93DF9334
:1003E00090E0FC01E255FF4F2491FC01E656FF4FDF
:1003F0008491882361F190E0880F991FFC01EE58E9
:10040000FF4FC591D491FC01E458FF4FA591B491E1
:10041000611109C09FB7F894888120958223888351
:10042000EC912E230BC0623061F49FB7F8943881B1
:10043000822F809583238883EC912E2B2C939FBF52
:1004400006C08FB7F894E8812E2B28838FBFDF91E9
:10045000CF9108953FB7F89480915F029091600228
:10046000A0916102B091620226B5A89B05C02F3F02
:1004700019F00196A11DB11D3FBFBA2FA92F982FCA
:100480008827820F911DA11DB11DBC01CD0142E045
:10049000660F771F881F991F4A95D1F708958F928D
:1004A0009F92AF92BF92CF92DF92EF92FF926B0139
:1004B0007C010E942A024B015C01C114D104E104B9
:1004C000F104F1F00E942A02DC01CB01881999099C
:1004D000AA09BB09883E9340A105B10570F321E04C
:1004E000C21AD108E108F10888EE880E83E0981E50
:1004F000A11CB11CC114D104E104F10419F7DDCF32
:10050000FF90EF90DF90CF90BF90AF909F908F9033
:1005100008958F929F92AF92BF92CF92DF92EF9207
:10052000FF920F931F93CF93DC011796CC911797EF
:10053000662311F08C2F01C080E018962C9118973B
:1005400030E0220F331F28593F4F40E050E0BA01FE
:10055000F90105911491F80190819C23981315C01D
:100560006A017B019FEFC91AD90AE90AF90A1D96A7
:100570008D909D90AD90BC905097481559056A0597
:100580007B0538F4B701A601E3CF342F252FCB012B
:1005900004C030E020E080E090E0632F722FCF9124
:1005A0001F910F91FF90EF90DF90CF90BF90AF9091
:1005B0009F908F9008958F929F92AF92BF92CF920B
:1005C000DF92EF92FF920F931F93CF93DF93CDB7FC
:1005D000DEB7C054D1400FB6F894DEBF0FBECDBF1A
:1005E0002FB7F894409167025091680260916902B8
:1005F00070916A022FBFFC01018512852385348525
:100600006A017B01C01AD10AE20AF30AE0EDCE16B4
:10061000E7E0DE06E104F10418F4FC018189B4C0CE
:100620008C01FC014187528763877487148213828F
:1006300012821182108261E085810E94A2016AEF1C
:1006400070E080E090E00E944F0261E0F801858157
:100650000E94EE0160E0F80185810E94A20164E140
:1006600070E080E090E00E944F02F89461E0F801B1
:1006700085810E94A2018BE990E00197F1F762E089
:10068000F80185810E94EE0183E290E00197F1F785
:1006900060E0C8010E948902672B682B692B21F456
:1006A000F801118A789441C061E0C8010E94890272
:1006B000672B682B692BA1F3CE0101967C015E01AB
:1006C0009FEBA91A9EEFB90A670160E0C8010E947A
:1006D0008902F601608371838283938361E0C8019C
:1006E0000E948902F6016483758386839783F8E00C
:1006F000CF0ED11CCA14DB0441F7789420E030E01F
:10070000F701408151816281738184809580A68048
:10071000B780411551056105710529F081149104D7
:10072000A104B10421F4F801118A80E02DC0F9017F
:1007300083E0F595E7958A95E1F7E00FF11F808159
:10074000880F481559056A057B0508F48160808388
:100750002F5F3F4FF8E0EF0EF11C2832310581F694
:10076000F801248130E04081818190E0840F911D67
:100770004281840F911D4381840F911D9927281771
:10078000390789F681E0818BC05CDE4F0FB6F894A3
:10079000DEBF0FBECDBFDF91CF911F910F91FF90B4
:1007A000EF90DF90CF90BF90AF909F908F90089583
:1007B000089508950895009769F0FC0101900020C4
:1007C000E9F73197AF01481B590BBC018BE692E06A
:1007D0000C94980080E090E00895CF93DF930E94FE
:1007E000DB03EC0184E391E00E94DB038C0F9D1F8F
:1007F000DF91CF9108958F929F92AF92BF920F9306
:100800001F93CF93DF93CDB7DEB7A1970FB6F894C0
:10081000DEBF0FBECDBF19A2423008F44AE08E0100
:100820000F5D1F4F842E912CA12CB12CA50194019A
:100830000E94630CE62FB901CA0101501109EA3088
:1008400014F4E05D01C0E95CD801EC93232B242B68
:10085000252B61F7C8010E94DB03A1960FB6F8941F
:10086000DEBF0FBECDBFDF91CF911F910F91BF9023
:10087000AF909F908F900895CF92DF92EF92FF926A
:10088000CF93DF936B017C0197FF12C08DE20E9432
:100890008D00EC0166277727CB016C197D098E0945
:1008A0009F094AE00E94FB037C01EC0EFD1E04C080
:1008B0004AE00E94FB037C0184E391E00E94DB0399
:1008C0008E0D9F1DDF91CF91FF90EF90DF90CF9025
:1008D00008958F929F92AF92BF92CF92DF92EF9244
:1008E000FF92CF93DF936B017C019B01AC010E94CF
:1008F0005E0C882319F087E391E027C04601570179
:10090000E894B7F82FEF3FEF4FE75FE7C501B40179
:100910000E945E0C81110DC02FEF3FEF4FE75FE7A4
:10092000C501B4010E94060B18161CF48BE391E07C
:100930000CC02FEF3FEF4FE75FE4C701B6010E9405
:10094000EC0B181674F48FE391E0DF91CF91FF90D8
:10095000EF90DF90CF90BF90AF909F908F900C94CE
:10096000DB032FEF3FEF4FE75FECC701B6010E94BB
:10097000060B87FDE8CF20E030E0A901C701B601F2
:100980000E94060B87FF09C08DE20E948D00EC01DA
:10099000F7FAF094F7F8F09402C0C0E0D0E02AE053
:1009A00037ED43EA5BE3C701B6010E949A0A4B01A7
:1009B0005C010E940B0B6B017C010E943A0B9B01B6
:1009C000AC01C501B4010E94990A4B015C014AE0E7
:1009D000C701B6010E94FB03C80FD91F8EE20E9417
:1009E0008D00C80FD91F20E030E040E251E4C5017E
:1009F000B4010E94F10B4B015C010E940B0B6B01D7
:100A0000E12CF12C4AE0C701B6010E94FB03C80F9C
:100A1000D91FC701B6010E943A0B9B01AC01C50169
:100A2000B4010E94990A20E030E040E251E40E94C3
:100A3000F10B0E940B0B80E090E04AE00E94FB0368
:100A40008C0F9D1FDF91CF91FF90EF90DF90CF90A3
:100A5000BF90AF909F908F9008950C94DB030E94FD
:100A6000D70DCF92DF92EF92FF920F931F93CF9308
:100A7000DF93EB0124E2FB0111922A95E9F744E2AE
:100A800050E060E070E0488359836A837B83FC0117
:100A900045815681678170854C835D836E837F833A
:100AA0004CE050E060E070E0488759876A877B87B8
:100AB0002FB7F894409167025091680260916902E3
:100AC00070916A022FBF488B598B6A8B7B8B038195
:100AD0001481C8010E94DB028823A1F1F8018681FC
:100AE0008B3041F178F18551823060F5F8016081F9
:100AF00070E080E090E00E943A0B20E030E040E8B7
:100B000053E40E94F10B6B017C01F8018181682F95
:100B100070E080E090E00E943C0B9B01AC01C701BB
:100B2000B6010E949A0A2DEC3CEC4CEC5DE30E946D
:100B3000F10B0CC0F801608170E080E090E00E9451
:100B40003A0B04C060E070E080EC9FE76C8B7D8B1B
:100B50008E8B9F8B81E0DF91CF911F910F91FF9042
:100B6000EF90DF90CF9008958F929F92AF92BF92B7
:100B7000FF920F931F93CF93DF93EB0124E2FB01CE
:100B800011922A95E9F744E250E060E070E0488372
:100B900059836A837B83FC01458156816781708517
:100BA0004C835D836E837F834DE050E060E070E0B6
:100BB000488759876A877B872FB7F89440916702E7
:100BC000509168026091690270916A022FBF488B50
:100BD000598B6A8B7B8B03811481C8010E94DB02D5
:100BE0008823D1F1F80186818B3029F0A8F1855155
:100BF000823048F031C0F801628170E080E090E01E
:100C00000E943A0B2DC0F801F2806F2D6F7770E0D3
:100C100080E090E00E943C0B20E030E040E853E4AC
:100C20000E94F10B4B015C01F8018381682F70E099
:100C300080E090E00E943C0B9B01AC01C501B40137
:100C40000E949A0A2DEC3CEC4CEC5DE30E94F10B07
:100C5000F7FE06C0905804C060E070E080EC9FE7AB
:100C60006C8B7D8B8E8B9F8B81E0DF91CF911F9161
:100C70000F91FF90BF90AF909F908F900895CF936A
:100C8000DF93EB01FC0182894BE050E0853139F0C4
:100C9000863141F08B3049F463E471E008C069E4C7
:100CA00071E005C06FE471E002C065E571E0CE015E
:100CB0000E94DC0D1B86DF91CF9108950F931F9347
:100CC000CF93DF938C01EB0188E2DB011D928A95C3
:100CD000E9F7F801838194810E943F0681E090E06A
:100CE000A0E0B0E08C879D87AE87BF87F801858143
:100CF0009681A781B085888B998BAA8BBB8B8CE062
:100D000090E0A0E0B0E08C8B9D8BAE8BBF8B03801E
:100D1000F481E02D8289853149F0863139F08B30BC
:100D200029F480E492E4AFE0B0E004C080E894E805
:100D3000AEE1B0E08CA39DA3AEA3BFA382898531B1
:100D4000C9F08631B9F08B3051F580E090E0A0EA2F
:100D5000B2E4888F998FAA8FBB8F80E090E0A0EAE1
:100D6000B1E48C8F9D8FAE8FBF8F80E090E0A0EAC2
:100D7000B0E410C080E090E0A8ECB2E4888F998FD6
:100D8000AA8FBB8F1C8E1D8E1E8E1F8E8DEC9CEC31
:100D9000ACECBDE388A399A3AAA3BBA30CC0188E97
:100DA000198E1A8E1B8E1C8E1D8E1E8E1F8E18A2E3
:100DB00019A21AA21BA2DF91CF911F910F91089542
:100DC0000F931F93CF93DF938C01EB0188E2DB013C
:100DD0001D928A95E9F7F801838194810E943F066C
:100DE00081E090E0A0E0B0E08C879D87AE87BF8770
:100DF000F80185819681A781B085888B998BAA8B14
:100E0000BB8B8DE090E0A0E0B0E08C8B9D8BAE8B37
:100E1000BF8B0380F481E02D8289853149F08631D2
:100E200039F08B3029F480E492E4AFE0B0E004C004
:100E300080E894E8AEE1B0E08CA39DA3AEA3BFA38D
:100E400082898531A9F08631C1F08B3079F580E057
:100E500090E0A8E4B2E4888F998FAA8FBB8F1C8E94
:100E60001D8E1E8E1F8E80E090E0A0E0B0E419C0C1
:100E700080E090E0A0EAB2E404C080E090E0AAEF55
:100E8000B2E4888F998FAA8FBB8F80E090E0A0E2B8
:100E9000B2EC8C8F9D8FAE8FBF8F8DEC9CECACEC49
:100EA000BDE388A399A3AAA3BBA30CC0188E198E77
:100EB0001A8E1B8E1C8E1D8E1E8E1F8E18A219A2BE
:100EC0001AA21BA2DF91CF911F910F9108950C944C
:100ED0003F0D0C943F0D1F920F920FB60F921124ED
:100EE0002F933F934F935F936F937F938F939F9332
:100EF000AF93BF93EF93FF938BE692E00E940E01B6
:100F0000FF91EF91BF91AF919F918F917F916F91E1
:100F10005F914F913F912F910F900FBE0F901F90B7
:100F200018951F920F920FB60F9211242F938F9343
:100F30009F93EF93FF93E0917B02F0917C0280817D
:100F4000E0918102F091820282FD12C09081809135
:100F500084028F5F8F7320918502821751F0E09198
:100F60008402F0E0E559FD4F958F8093840201C023
:100F70008081FF91EF919F918F912F910F900FBEE4
:100F80000F901F9018951F920F920FB60F92112479
:100F90002F933F938F939F93AF93BF93809167025B
:100FA00090916802A0916902B0916A0230915E024C
:100FB00023E0230F2D3720F40196A11DB11D05C09C
:100FC00026E8230F0296A11DB11D20935E02809397
:100FD000670290936802A0936902B0936A028091BD
:100FE0005F0290916002A0916102B091620201964D
:100FF000A11DB11D80935F0290936002A0936102D6
:10100000B0936202BF91AF919F918F913F912F91C9
:101010000F900FBE0F901F901895EBE6F2E0138231
:10102000128288EE93E0A0E0B0E084839583A683EB
:10103000B7838AE091E09183808385EC90E0958787
:10104000848784EC90E09787868780EC90E0918B92
:10105000808B81EC90E0938B828B82EC90E0958B7F
:10106000848B86EC90E0978B868B118E128E138E7C
:10107000148EA8E0B3E082E015968C93159786E174
:1010800016968C931697E0EBF0E0E4911796EC93AC
:101090001797ECE9F0E0E4911896EC93189740E884
:1010A0005EE360E070E01D964D935D936D937C93DD
:1010B000509752968C9352978AE291E054969C9363
:1010C0008E9353970A2E1B2E57961C920E92112424
:1010D00056974FEF5FEFBA0158964D935D936D931E
:1010E0007C935B978CE191E05D969C938E935C97EB
:1010F0000A2E1B2E90961C920E9211245F979196A9
:101100004D935D936D937C9394970895CF93DF9364
:10111000CDB7DEB7E1970FB6F894DEBF0FBECDBFF7
:10112000789484B5826084BD84B5816084BD85B5C2
:10113000826085BD85B5816085BD80916E008160CE
:1011400080936E0010928100809181008260809374
:101150008100809181008160809381008091800076
:101160008160809380008091B10084608093B100A1
:101170008091B00081608093B00080917A0084609B
:1011800080937A0080917A00826080937A008091C7
:101190007A00816080937A0080917A0080688093E1
:1011A0007A001092C100E0917B02F0917C0282E013
:1011B0008083E0917702F09178021082E0917902C9
:1011C000F0917A028FEC808310928302E0917F028B
:1011D000F091800286E08083E0917D02F0917E02B2
:1011E000808180618083E0917D02F0917E02808128
:1011F00088608083E0917D02F0917E02808180682A
:101200008083E0917D02F0917E0280818F7D8083DA
:1012100062E080910D030E94EE0180E398EFAFEF52
:10122000BFEF8093110390931203A0931303B09325
:1012300014038AE591E00E94ED0380911D038BA7C2
:101240008AE291E09AA789A780911E0390911F03DB
:101250009DA78CA78091200390912103A091220348
:10126000B09123038EA79FA7A8ABB9ABBE016F5F58
:101270007F4FCE0189960E94E00687E791E00E94A9
:10128000ED038CE991E00E94ED0388EA91E00E9471
:101290002D05CE0101960E94ED0387EB91E00E949F
:1012A0002D056D857E858F8598890E943C0486EC8E
:1012B00091E00E942D0569897A898B899C890E9419
:1012C0003C0485ED91E00E942D05698D7A8D8B8D12
:1012D0009C8D0E94690484EE91E00E94ED0388EEEB
:1012E00091E00E942D056D8D7E8D8F8D98A10E94BD
:1012F000690484EE91E00E94ED0387EF91E00E9483
:101300002D0569A17AA18BA19CA10E94690484EE9C
:1013100091E00E94ED0387E791E00E94ED03809148
:1013200026038BA78CE191E09AA789A780912703D8
:10133000909128039DA78CA78091290390912A035F
:10134000A0912B03B0912C038EA79FA7A8ABB9AB9C
:10135000BE016F5F7F4FCE0189960E945E0687E7D0
:1013600091E00E94ED0386E092E00E94ED0388EA9E
:1013700091E00E942D05CE0101960E94ED0387EBBE
:1013800091E00E942D056D857E858F8598890E944C
:101390003C0486EC91E00E942D0569897A898B894D
:1013A0009C890E943C0485ED91E00E942D05698D89
:1013B0007A8D8B8D9C8D0E9469048FE092E00E9453
:1013C000ED0388EE91E00E942D056D8D7E8D8F8D51
:1013D00098A10E9469048FE092E00E94ED0387EFDC
:1013E00091E00E942D0569A17AA18BA19CA10E9488
:1013F00069048FE092E00E94ED0387E791E00E948C
:10140000ED036DA17EA18FA198A528EE33E040E009
:1014100050E00E94850C2093630230936402409355
:101420006502509366020AE211E08CE1E82E81E049
:10143000F82E609163027091640280916502909130
:1014400066020E944F0280911D038BA71AA709A76D
:1014500080911E0390911F039DA78CA7809120036C
:1014600090912103A0912203B09123038EA79FA7FF
:10147000A8ABB9ABBE016F5F7F4FCE0189960E94CA
:10148000B4056D897E898F89988D9B01AC010E947E
:101490005E0C882319F081E192E00CC08CE292E0AE
:1014A0000E942D056D897E898F89988D0E9469041F
:1014B00084EE91E00E94ED03809126038BA7FAA6AB
:1014C000E9A680912703909128039DA78CA780917E
:1014D000290390912A03A0912B03B0912C038EA78E
:1014E0009FA7A8ABB9ABBE016F5F7F4FCE018996B6
:1014F0000E9431056D897E898F89988D9B01AC0191
:101500000E945E0C882319F08AE392E00CC082E509
:1015100092E00E942D056D897E898F89988D0E94A9
:1015200069048FE092E00E94ED030E94980181CF50
:1015300008955058BB27AA270E94B10A0C94B20BF9
:101540000E94A40B38F00E94AB0B20F039F49F3FAF
:1015500019F426F40C94A10B0EF4E095E7FB0C941F
:101560009B0BE92F0E94C30B58F3BA17620773074E
:101570008407950720F079F4A6F50C94E50B0EF49A
:10158000E0950B2EBA2FA02D0B01B90190010C0193
:10159000CA01A0011124FF27591B99F0593F50F4AB
:1015A000503E68F11A16F040A22F232F342F442703
:1015B000585FF3CF469537952795A795F0405395FB
:1015C000C9F77EF41F16BA0B620B730B840BBAF0CB
:1015D0009150A1F0FF0FBB1F661F771F881FC2F736
:1015E0000EC0BA0F621F731F841F48F4879577954A
:1015F0006795B795F7959E3F08F0B0CF9395880F04
:1016000008F09927EE0F9795879508950E94770B1C
:1016100008F481E008950E94CB0B88F09F5798F062
:10162000B92F9927B751B0F0E1F0660F771F881FE7
:10163000991F1AF0BA95C9F714C0B13091F00E9401
:10164000E50BB1E008950C94E50B672F782F882700
:10165000B85F39F0B93FCCF3869577956795B39528
:10166000D9F73EF490958095709561957F4F8F4F97
:101670009F4F0895E89409C097FB3EF4909580959C
:10168000709561957F4F8F4F9F4F9923A9F0F92F48
:1016900096E9BB279395F695879577956795B795C6
:1016A000F111F8CFFAF4BB0F11F460FF1BC06F5FAC
:1016B0007F4F8F4F9F4F16C0882311F096E911C0BE
:1016C000772321F09EE8872F762F05C0662371F0DF
:1016D00096E8862F70E060E02AF09A95660F771FF3
:1016E000881FDAF7880F9695879597F90895990FCF
:1016F0000008550FAA0BE0E8FEEF16161706E807DC
:10170000F907C0F012161306E407F50798F0621BFC
:10171000730B840B950B39F40A2661F0232B242BD1
:10172000252B21F408950A2609F4A140A6958FEFF0
:10173000811D811D089597F99F6780E870E060E042
:1017400008959FEF80EC089500240A94161617065A
:1017500018060906089500240A94121613061406A2
:1017600005060895092E0394000C11F4882352F005
:10177000BB0F40F4BF2B11F460FF04C06F5F7F4FBD
:101780008F4F9F4F089557FD9058440F551F59F0A4
:101790005F3F71F04795880F97FB991F61F09F3F5E
:1017A00079F087950895121613061406551FF2CF87
:1017B0004695F1DF08C0161617061806991FF1CFD7
:1017C00086957105610508940895E894BB276627FE
:1017D0007727CB0197F908950E94770B08F48FEFD4
:1017E00008950E94040C0C94B20B0E94A40B38F0D4
:1017F0000E94AB0B20F0952311F00C949B0B0C94E2
:10180000A10B11240C94E60B0E94C30B70F3959F5F
:10181000C1F3950F50E0551F629FF001729FBB27E7
:10182000F00DB11D639FAA27F00DB11DAA1F649F83
:101830006627B00DA11D661F829F2227B00DA11D36
:10184000621F739FB00DA11D621F839FA00D611DBC
:10185000221F749F3327A00D611D231F849F600DDD
:10186000211D822F762F6A2F11249F5750409AF006
:10187000F1F088234AF0EE0FFF1FBB1F661F771F92
:10188000881F91505040A9F79E3F510580F00C945D
:101890009B0B0C94E60B5F3FE4F3983ED4F38695E4
:1018A00077956795B795F795E7959F5FC1F7FE2BFD
:1018B000880F911D9695879597F908950E94770B4B
:1018C000880B990B0895A1E21A2EAA1BBB1BFD01E0
:1018D0000DC0AA1FBB1FEE1FFF1FA217B307E4070F
:1018E000F50720F0A21BB30BE40BF50B661F771F67
:1018F000881F991F1A9469F7609570958095909547
:101900009B01AC01BD01CF010895052E97FB1EF48C
:1019100000940E949C0C57FD07D00E94630C07FCAA
:1019200003D04EF40C949C0C509540953095219525
:101930003F4F4F4F5F4F08959095809570956195FB
:101940007F4F8F4F9F4F0895EE0FFF1F0590F4912B
:10195000E02D0994CF93DF938230910510F482E05B
:1019600090E0E0912F03F091300320E030E0C0E000
:10197000D0E0309711F14081518148175907C0F0EC
:101980004817590761F482819381209719F09B834E
:101990008A832BC09093300380932F0326C0211598
:1019A000310519F04217530718F49A01BE01DF01FF
:1019B000EF010280F381E02DDCCF2115310509F123
:1019C000281B390B2430310590F412968D919C918F
:1019D00013976115710521F0FB019383828304C085
:1019E0009093300380932F03FD01329644C0FD0194
:1019F000E20FF31F81939193225031092D933C9371
:101A00003AC020912D0330912E03232B41F42091D5
:101A100002013091030130932E0320932D03209176
:101A20000001309101012115310541F42DB73EB778
:101A30004091040150910501241B350BE0912D03C9
:101A4000F0912E03E217F307A0F42E1B3F0B28178B
:101A5000390778F0AC014E5F5F4F2417350748F027
:101A60004E0F5F1F50932E0340932D03819391934C
:101A700002C0E0E0F0E0CF01DF91CF9108950F9335
:101A80001F93CF93DF93009709F48CC0FC0132972A
:101A90001382128200912F0310913003011511055A
:101AA00081F420813181820F931F20912D03309189
:101AB0002E032817390779F5F0932E03E0932D03B1
:101AC00071C0D80140E050E0AE17BF0750F4129645
:101AD0002D913C911397AD012115310509F1D901E3
:101AE000F3CF9D01DA013383228360817181860FF8
:101AF000971F8217930769F4EC0128813981260F1B
:101B0000371F2E5F3F4F318320838A819B819383D0
:101B10008283452B29F4F0933003E0932F0342C0D6
:101B20001396FC93EE931297ED01499159919E0102
:101B3000240F351FE217F30771F480819181840F20
:101B4000951F029611969C938E9382819381139692
:101B50009C938E931297E0E0F0E0D80112968D915D
:101B60009C911397009719F0F8018C01F6CF8D9195
:101B70009C9198012E5F3F4F820F931F20912D0360
:101B800030912E032817390769F4309729F4109201
:101B9000300310922F0302C01382128210932E037F
:101BA00000932D03DF91CF911F910F91089581E054
:101BB00090E0F8940C94EB0DFB01DC014150504097
:101BC00048F001900D920020C9F701C01D924150CC
:101BD0005040E0F7089510E0C2E6D0E004C0FE01F6
:101BE0000E94A40C2196C336D107C9F7F894FFCF01
:101BF000000031038000000000002F019800C700A2
:101C00007601F800D600EA0000000000D80367075C
:101C1000DA0331055E0600000000D9036907DA0324
:101C2000B405E0060D0A006E616E00696E66006F15
:101C300076660044485431310044485432310044FF
:101C400048543232004448543F0044485478782085
:101C5000556E69666965642053656E736F722045C1
:101C600078616D706C65002D2D2D2D2D2D2D2D2D58
:101C70002D2D2D2D2D2D2D2D2D2D2D2D2D2D2D2D94
:101C80002D2D2D2D2D2D2D2D2D2D2D0054656D70CF
:101C9000657261747572650053656E736F723A2078
:101CA000202020202020004472697665722056652D
:101CB000723A20202000556E697175652049443ABA
:101CC00020202020004D61782056616C75653A20F7
:101CD00020202000202A43004D696E2056616C753B
:101CE000653A20202020005265736F6C7574696F0F
:101CF0006E3A2020200048756D696469747900256A
:101D0000004572726F722072656164696E6720743B
:101D1000656D7065726174757265210054656D70D2
:101D2000657261747572653A20004572726F722037
:101D300072656164696E672068756D69646974793C
:0E1D4000210048756D69646974793A200000CD
:00000001FF
